{
  "transactions": [
    {
      "hash": "0xd2be9fadf6a89415c206550fea870190c4ad30ca83dcde05aafa17b93fb2b45d",
      "transactionType": "CREATE",
      "contractName": "CodeToken",
      "contractAddress": "0x54e4a3fd264ca957ff11192b3a58e0ed27229c7b",
      "function": null,
      "arguments": null,
      "transaction": {
        "from": "0xae7b099920401df166376f4b5dc5e6edffcb8468",
        "gas": "0x111778",
        "value": "0x0",
        "input": "0x60808060405234601557610e9d908161001a8239f35b5f80fdfe60806040526004361015610011575f80fd5b5f3560e01c806306fdde03146109a0578063095ea7b31461092157806318160ddd146108f857806323b872dd14610820578063313ce5671461080557806340c10f19146107c857806370a0823114610784578063715018a61461071d5780638129fc1c146102805780638da5cb5b1461024c57806395d89b411461015a578063a9059cbb14610129578063dd62ed3e146100e25763f2fde38b146100b3575f80fd5b346100de5760203660031901126100de576100dc6100cf610a87565b6100d7610c87565b610b45565b005b5f80fd5b346100de5760403660031901126100de576100fb610a87565b61010c610106610a9d565b91610b0d565b9060018060a01b03165f52602052602060405f2054604051908152f35b346100de5760403660031901126100de5761014f610145610a87565b6024359033610bb6565b602060405160018152f35b346100de575f3660031901126100de576040515f5f516020610de85f395f51905f525461018681610ab3565b808452906001811690811561022857506001146101be575b6101ba836101ae81850382610aeb565b60405191829182610a5d565b0390f35b5f516020610de85f395f51905f525f9081527f46a2803e59a4de4e7a4c574b1243f25977ac4c77d5a1a4a609b5394cebb4a2aa939250905b80821061020e575090915081016020016101ae61019e565b9192600181602092548385880101520191019092916101f6565b60ff191660208086019190915291151560051b840190910191506101ae905061019e565b346100de575f3660031901126100de575f516020610e085f395f51905f52546040516001600160a01b039091168152602090f35b346100de575f3660031901126100de575f516020610e485f395f51905f525460ff8160401c16159067ffffffffffffffff811680159081610715575b600114908161070b575b159081610702575b506106f35767ffffffffffffffff1981166001175f516020610e485f395f51905f5255816106c7575b50610300610d7c565b610308610d7c565b61031133610b45565b60405190610320604083610aeb565b600582526424434f444560d81b602083015260405190610341604083610aeb565b600a82526921a7a222902a37b5b2b760b11b6020830152610360610d7c565b610368610d7c565b825167ffffffffffffffff81116105be576103905f516020610da85f395f51905f5254610ab3565b601f8111610658575b506020601f82116001146105dd57819293945f926105d2575b50508160011b915f199060031b1c1916175f516020610da85f395f51905f52555b815167ffffffffffffffff81116105be576103fb5f516020610de85f395f51905f5254610ab3565b601f811161054f575b50602092601f82116001146104d657928192935f926104cb575b50508160011b915f199060031b1c1916175f516020610de85f395f51905f52555b33156104b85761045b6b204fce5e3e2502611000000033610cba565b61046157005b68ff0000000000000000195f516020610e485f395f51905f5254165f516020610e485f395f51905f52557fc7f505b2f371ae2175ee4913f4499e1f2633a7b5936321eed1cdaeb6115181d2602060405160018152a1005b63ec442f0560e01b5f525f60045260245ffd5b01519050838061041e565b601f198216935f516020610de85f395f51905f525f52805f20915f5b868110610537575083600195961061051f575b505050811b015f516020610de85f395f51905f525561043f565b01515f1960f88460031b161c19169055838080610505565b919260206001819286850151815501940192016104f2565b5f516020610de85f395f51905f525f527f46a2803e59a4de4e7a4c574b1243f25977ac4c77d5a1a4a609b5394cebb4a2aa601f830160051c810191602084106105b4575b601f0160051c01905b8181106105a95750610404565b5f815560010161059c565b9091508190610593565b634e487b7160e01b5f52604160045260245ffd5b0151905084806103b2565b601f198216905f516020610da85f395f51905f525f52805f20915f5b81811061064057509583600195969710610628575b505050811b015f516020610da85f395f51905f52556103d3565b01515f1960f88460031b161c1916905584808061060e565b9192602060018192868b0151815501940192016105f9565b5f516020610da85f395f51905f525f527f2ae08a8e29253f69ac5d979a101956ab8f8d9d7ded63fa7a83b16fc47648eab0601f830160051c810191602084106106bd575b601f0160051c01905b8181106106b25750610399565b5f81556001016106a5565b909150819061069c565b68ffffffffffffffffff191668010000000000000001175f516020610e485f395f51905f5255816102f7565b63f92ee8a960e01b5f5260045ffd5b905015836102ce565b303b1591506102c6565b8391506102bc565b346100de575f3660031901126100de57610735610c87565b5f516020610e085f395f51905f5280546001600160a01b031981169091555f906001600160a01b03167f8be0079c531659141344cd1fd0a4f28419497f9722a3daafe3b4186f6b6457e08280a3005b346100de5760203660031901126100de576001600160a01b036107a5610a87565b165f525f516020610dc85f395f51905f52602052602060405f2054604051908152f35b346100de5760403660031901126100de576107e1610a87565b6107e9610c87565b6001600160a01b038116156104b8576100dc9060243590610cba565b346100de575f3660031901126100de57602060405160128152f35b346100de5760603660031901126100de57610839610a87565b610841610a9d565b6044359061084e83610b0d565b335f9081526020919091526040902054925f198410610872575b61014f9350610bb6565b8284106108dd576001600160a01b038116156108ca5733156108b75761014f9361089b82610b0d565b60018060a01b0333165f526020528360405f2091039055610868565b634a1406b160e11b5f525f60045260245ffd5b63e602df0560e01b5f525f60045260245ffd5b8284637dc7a0d960e11b5f523360045260245260445260645ffd5b346100de575f3660031901126100de5760205f516020610e285f395f51905f5254604051908152f35b346100de5760403660031901126100de5761093a610a87565b6024359033156108ca576001600160a01b03169081156108b75761095d33610b0d565b825f526020528060405f20556040519081527f8c5be1e5ebec7d5bd14f71427d1e84f3dd0314c0f7b2291e5b200ac8c7c3b92560203392a3602060405160018152f35b346100de575f3660031901126100de576040515f5f516020610da85f395f51905f52546109cc81610ab3565b808452906001811690811561022857506001146109f3576101ba836101ae81850382610aeb565b5f516020610da85f395f51905f525f9081527f2ae08a8e29253f69ac5d979a101956ab8f8d9d7ded63fa7a83b16fc47648eab0939250905b808210610a43575090915081016020016101ae61019e565b919260018160209254838588010152019101909291610a2b565b602060409281835280519182918282860152018484015e5f828201840152601f01601f1916010190565b600435906001600160a01b03821682036100de57565b602435906001600160a01b03821682036100de57565b90600182811c92168015610ae1575b6020831014610acd57565b634e487b7160e01b5f52602260045260245ffd5b91607f1691610ac2565b90601f8019910116810190811067ffffffffffffffff8211176105be57604052565b6001600160a01b03165f9081527f52c63247e1f47db19d5ce0460030c497f067ca4cebf71ba98eeadabe20bace016020526040902090565b6001600160a01b03168015610ba3575f516020610e085f395f51905f5280546001600160a01b0319811683179091556001600160a01b03167f8be0079c531659141344cd1fd0a4f28419497f9722a3daafe3b4186f6b6457e05f80a3565b631e4fbdf760e01b5f525f60045260245ffd5b6001600160a01b0316908115610c74576001600160a01b03169182156104b857815f525f516020610dc85f395f51905f5260205260405f2054818110610c5b57817fddf252ad1be2c89b69c2b068fc378daa952ba7f163c4a11628f55a4df523b3ef92602092855f525f516020610dc85f395f51905f5284520360405f2055845f525f516020610dc85f395f51905f52825260405f20818154019055604051908152a3565b8263391434e360e21b5f5260045260245260445260645ffd5b634b637e8f60e11b5f525f60045260245ffd5b5f516020610e085f395f51905f52546001600160a01b03163303610ca757565b63118cdaa760e01b5f523360045260245ffd5b5f516020610e285f395f51905f525490828201809211610d68575f516020610e285f395f51905f52919091556001600160a01b0316905f907fddf252ad1be2c89b69c2b068fc378daa952ba7f163c4a11628f55a4df523b3ef9060209084610d4657805f516020610e285f395f51905f5254035f516020610e285f395f51905f52555b604051908152a3565b8484525f516020610dc85f395f51905f52825260408420818154019055610d3d565b634e487b7160e01b5f52601160045260245ffd5b60ff5f516020610e485f395f51905f525460401c1615610d9857565b631afcd79f60e31b5f5260045ffdfe52c63247e1f47db19d5ce0460030c497f067ca4cebf71ba98eeadabe20bace0352c63247e1f47db19d5ce0460030c497f067ca4cebf71ba98eeadabe20bace0052c63247e1f47db19d5ce0460030c497f067ca4cebf71ba98eeadabe20bace049016d09d72d40fdae2fd8ceac6b6234c7706214fd39c1cd1e609a0528c19930052c63247e1f47db19d5ce0460030c497f067ca4cebf71ba98eeadabe20bace02f0c57e16840df040f15088dc2f81fe391c3923bec73e23a9662efc9c229c6a00a264697066735822122017349c86f7a18ae0d4391cc4df5286f0109b9daf01b81b28fa2bbd8c6cfbedd264736f6c634300081c0033",
        "nonce": "0x9c",
        "chainId": "0x45a"
      },
      "additionalContracts": [],
      "isFixedGasLimit": false
    },
    {
      "hash": "0x1ed7dd63906d90e067b1aecb389ded8aa8dfa206e33cc89161f32a2e7f9a9cac",
      "transactionType": "CALL",
      "contractName": "CodeToken",
      "contractAddress": "0x54e4a3fd264ca957ff11192b3a58e0ed27229c7b",
      "function": "initialize()",
      "arguments": [],
      "transaction": {
        "from": "0xae7b099920401df166376f4b5dc5e6edffcb8468",
        "to": "0x54e4a3fd264ca957ff11192b3a58e0ed27229c7b",
        "gas": "0x365bb",
        "value": "0x0",
        "input": "0x8129fc1c",
        "nonce": "0x9d",
        "chainId": "0x45a"
      },
      "additionalContracts": [],
      "isFixedGasLimit": false
    },
    {
      "hash": "0xec3a5f9cd45f35419e0a32a967d508b85222bef5c8a1d85459208437dec19d97",
      "transactionType": "CREATE",
      "contractName": "Code",
      "contractAddress": "0x6a328bbf37786866302b7c78368d9c8a89227543",
      "function": null,
      "arguments": null,
      "transaction": {
        "from": "0xae7b099920401df166376f4b5dc5e6edffcb8468",
        "gas": "0x236e11",
        "value": "0x0",
        "input": "0x60808060405234601557611f4f908161001a8239f35b5f80fdfe60806040526004361015610011575f80fd5b5f3560e01c806306fdde0314611a3c578063095ea7b3146119bd5780630962ef791461167e5780631525ff7d1461163b57806318160ddd146115ff57806323b872dd14611527578063266aec10146113f457806326a392bf146110e4578063313ce567146110c95780633edc0d6a1461104d578063532291f4146110015780635992704414610fd957806366666aa914610fbc5780636752071c14610f7057806370a0823114610f2c578063715018a614610ec55780637782a82414610d595780637b10399914610d315780638129fc1c14610bed5780638831396b14610bd05780638a56829914610bb45780638c65c81f14610b195780638da5cb5b14610ae557806395d89b41146109c55780639d733f0c146109a8578063a9059cbb14610977578063a91ee0dc14610934578063b269866b14610735578063c1a175ce1461041a578063c5728c461461026e578063ce8399bb14610222578063dd62ed3e146101db578063dfd677ce146101be5763f2fde38b1461018f575f80fd5b346101ba5760203660031901126101ba576101b86101ab611b43565b6101b3611d57565b611ce6565b005b5f80fd5b346101ba575f3660031901126101ba576020600154604051908152f35b346101ba5760403660031901126101ba576101f4611b43565b6102056101ff611b59565b91611cae565b9060018060a01b03165f52602052602060405f2054604051908152f35b346101ba5760203660031901126101ba577f7ab83c35e60e02096ec2f085a4e0f63cceb157a21238fdcd29ce6685cb4c3e736020600435610261611d57565b80600155604051908152a1005b346101ba575f3660031901126101ba57600654604051630d2020dd60e01b81526821b7b232aa37b5b2b760b91b600482015290602090829060249082906001600160a01b03165afa80156103e2576102ff6020915f9384916103ed575b506001546040516323b872dd60e01b8152336004820152306024820152604481019190915293849283919082906064820190565b03926001600160a01b03165af180156103e2576103b5575b50610326600154600554611c57565b806005556005810290808204600514901517156103a15760205f516020611e9a5f395f51905f5291606460405191048152a15f545f1981019081116103a1576040805133815260208101929092527f4c6a0b2f65a3d020eb9fd4dc3b18e4f6cc62dbd119605a342775da482d5c600d9190819081015b0390a1005b634e487b7160e01b5f52601160045260245ffd5b6103d69060203d6020116103db575b6103ce8183611b6f565b810190611c96565b610317565b503d6103c4565b6040513d5f823e3d90fd5b61040d9150833d8511610413575b6104058183611b6f565b810190611c64565b846102cb565b503d6103fb565b346101ba5760803660031901126101ba5736602312156101ba576040516080810181811067ffffffffffffffff8211176107215760405280366084116101ba576004905b6084821061071157600654604051630d2020dd60e01b81526821b7b232aa37b5b2b760b91b60048201528491602090829060249082906001600160a01b03165afa9081156103e2575f916106f2575b506003546040516370a0823160e01b81523360048201526001600160a01b039290921691602081602481865afa9081156103e2575f916106c0575b50811015610684576040516323b872dd60e01b815233600482015230602482015260448101919091526020816064815f865af180156103e257610667575b50600454600354600a808202926001600160a01b031691801590840490911417156103a15760405163a9059cbb60e01b81526001600160a01b039190911660048201526064909104602482015290602090829060449082905f905af180156103e25761064a575b50600354605a810290808204605a14901517156103a15760646105b39104600554611c57565b806005556005810290808204600514901517156103a15760205f516020611e9a5f395f51905f5291606460405191048152a15f545f1981019081116103a157604051338152915f602084015b60048210610634577fe5890bd7d2daed5587346260b9ed1eb3f33f4b7eee50724cddc38ba8039dbe9460c0868660a0820152a1005b60208060019285518152019301910190916105ff565b6106629060203d6020116103db576103ce8183611b6f565b61058d565b61067f9060203d6020116103db576103ce8183611b6f565b610526565b60405162461bcd60e51b8152602060048201526014602482015273496e73756666696369656e742042616c616e636560601b6044820152606490fd5b90506020813d6020116106ea575b816106db60209383611b6f565b810103126101ba5751846104e8565b3d91506106ce565b61070b915060203d602011610413576104058183611b6f565b826104ad565b813581526020918201910161045e565b634e487b7160e01b5f52604160045260245ffd5b346101ba5760203660031901126101ba5760043567ffffffffffffffff81116101ba57366023820112156101ba57806004013567ffffffffffffffff8111610721576040519161078f601f8301601f191660200184611b6f565b81835236602483830101116101ba57815f9260246020930183860137830101526107b7611d57565b6005546005810290808204600514901517156103a1575f545f526007602052600160405f2001825167ffffffffffffffff8111610721576107f88254611b91565b601f81116108ef575b506020601f821160011461088e57819293945f92610883575b50508160011b915f199060031b1c19161790555b5f516020611e9a5f395f51905f5260205f54927fffd54b413ad7953f600667abc68976fd55918f924f39fad7a55319a0217ad3b782604051868152a1606460405191048152a15f1981146103a1576001015f55005b01519050848061081a565b601f19821690835f52805f20915f5b8181106108d7575095836001959697106108bf575b505050811b01905561082e565b01515f1960f88460031b161c191690558480806108b2565b9192602060018192868b01518155019401920161089d565b825f5260205f20601f830160051c8101916020841061092a575b601f0160051c01905b81811061091f5750610801565b5f8155600101610912565b9091508190610909565b346101ba5760203660031901126101ba5761094d611b43565b610955611d57565b600680546001600160a01b0319166001600160a01b0392909216919091179055005b346101ba5760403660031901126101ba5761099d610993611b43565b6024359033611d8a565b602060405160018152f35b346101ba575f3660031901126101ba576020600354604051908152f35b346101ba575f3660031901126101ba576040515f7f52c63247e1f47db19d5ce0460030c497f067ca4cebf71ba98eeadabe20bace0454610a0481611b91565b8084529060018116908115610ac15750600114610a44575b610a4083610a2c81850382611b6f565b604051918291602083526020830190611b1f565b0390f35b7f52c63247e1f47db19d5ce0460030c497f067ca4cebf71ba98eeadabe20bace045f9081527f46a2803e59a4de4e7a4c574b1243f25977ac4c77d5a1a4a609b5394cebb4a2aa939250905b808210610aa757509091508101602001610a2c610a1c565b919260018160209254838588010152019101909291610a8f565b60ff191660208086019190915291151560051b84019091019150610a2c9050610a1c565b346101ba575f3660031901126101ba575f516020611eda5f395f51905f52546040516001600160a01b039091168152602090f35b346101ba5760203660031901126101ba576004355f52600760205260405f20805460405191610b5683610b4f8160018501611bc9565b0384611b6f565b60018060a01b036002820154169060038101549060048101546006600583015492015492610b96604051978897885260e0602089015260e0880190611b1f565b9460408701526060860152608085015260a084015260c08301520390f35b346101ba575f3660031901126101ba5760205f54604051908152f35b346101ba575f3660031901126101ba576020600254604051908152f35b346101ba575f3660031901126101ba575f516020611efa5f395f51905f525460ff8160401c16159067ffffffffffffffff811680159081610d29575b6001149081610d1f575b159081610d16575b50610d075767ffffffffffffffff1981166001175f516020611efa5f395f51905f525581610cdb575b50610c6d611e6e565b610c75611e6e565b610c7e33611ce6565b610c8457005b68ff0000000000000000195f516020611efa5f395f51905f5254165f516020611efa5f395f51905f52557fc7f505b2f371ae2175ee4913f4499e1f2633a7b5936321eed1cdaeb6115181d2602060405160018152a1005b68ffffffffffffffffff191668010000000000000001175f516020611efa5f395f51905f525581610c64565b63f92ee8a960e01b5f5260045ffd5b90501583610c3b565b303b159150610c33565b839150610c29565b346101ba575f3660031901126101ba576006546040516001600160a01b039091168152602090f35b346101ba575f3660031901126101ba57600654604051630d2020dd60e01b81526821b7b232aa37b5b2b760b91b600482015290602090829060249082906001600160a01b03165afa80156103e257610dea6020915f938491610ea8575b506002546040516323b872dd60e01b8152336004820152306024820152604481019190915293849283919082906064820190565b03926001600160a01b03165af180156103e257610e8b575b50610e11600254600554611c57565b806005556005810290808204600514901517156103a15760205f516020611e9a5f395f51905f5291606460405191048152a15f545f1981019081116103a1576040805133815260208101929092527f6f21440f774fdc03318d582f3ad3f3a0fe89bc925ad297f71a827d05a53b018691908190810161039c565b610ea39060203d6020116103db576103ce8183611b6f565b610e02565b610ebf9150833d8511610413576104058183611b6f565b84610db6565b346101ba575f3660031901126101ba57610edd611d57565b5f516020611eda5f395f51905f5280546001600160a01b031981169091555f906001600160a01b03167f8be0079c531659141344cd1fd0a4f28419497f9722a3daafe3b4186f6b6457e08280a3005b346101ba5760203660031901126101ba576001600160a01b03610f4d611b43565b165f525f516020611eba5f395f51905f52602052602060405f2054604051908152f35b346101ba5760203660031901126101ba577f8d0fa9daa4fd10aa43cf5213e9d38aa76823b2a49571e7f5432b0b2368f4cda16020600435610faf611d57565b80600355604051908152a1005b346101ba575f3660031901126101ba576020600554604051908152f35b346101ba575f3660031901126101ba576004546040516001600160a01b039091168152602090f35b346101ba5760203660031901126101ba577fbea1a3a91f7fb0eb8809e74307f4c0cdf4e60cc0fd794f46e3b9979fc53a29296020600435611040611d57565b80600255604051908152a1005b346101ba5760403660031901126101ba577f7ab83c35e60e02096ec2f085a4e0f63cceb157a21238fdcd29ce6685cb4c3e7360206024357fbea1a3a91f7fb0eb8809e74307f4c0cdf4e60cc0fd794f46e3b9979fc53a2929826004356110b1611d57565b8360015580600255604051908152a1604051908152a1005b346101ba575f3660031901126101ba57602060405160128152f35b346101ba5760403660031901126101ba576110fd611b43565b60243567ffffffffffffffff81116101ba57366023820112156101ba5780600401359067ffffffffffffffff8211610721578160051b90604051926111456020840185611b6f565b83526020830160248193830101913683116101ba57602401905b8282106113e457505050611171611d57565b6005549160058302838104600514841517156103a157606461119591048094611c4a565b6005555f545f1981019081116103a1575f90815260076020526040812060020180546001600160a01b0319166001600160a01b039096169586179055545f1981019081116103a1575f52600760205282600360405f2001555f545f1981019081116103a1575f526007602052600c600460405f2001555f545f1981019081116103a1575f52600760205242600660405f2001555f545f1981019081116103a1575f5260076020525f60056040822001555f545f1981019081116103a1575f526007602052600760405f200190519167ffffffffffffffff8311610721576801000000000000000083116107215781548383558084106113be575b50905f5260205f205f5b8381106113aa57855f516020611e9a5f395f51905f52602087604051908152a15f545f1981018181116103a1575f52600760205260405f20906040519283526020830152606060408301528054606083015261010060808301526007611306610160840160018401611bc9565b60028301546001600160a01b031660a0850152600383015460c0850152600483015460e085015260058301546101008501526006830154610120850152838103605f1901610140850152910180548083525f9182526020808320930192915b818110611394577fce474632f97531cbee2569021f1ac9fb848652d452d27903b6408a044d63113685850386a1005b8254845260209093019260019283019201611365565b600190602084519401938184015501611299565b825f528360205f2091820191015b8181106113d9575061128f565b5f81556001016113cc565b813581526020918201910161115f565b346101ba575f3660031901126101ba5761140c611d57565b600654604051630d2020dd60e01b81526821b7b232aa37b5b2b760b91b600482015290602090829060249082906001600160a01b03165afa9081156103e2575f91602091839161150a575b506040516323b872dd60e01b81523360048201523060248201526a52b7d2dcc80cd2e4000000604482015292839160649183916001600160a01b03165af180156103e2576114ed575b506005546a52b7d2dcc80cd2e400000081018091116103a157806005556005810290808204600514901517156103a15760205f516020611e9a5f395f51905f5291606460405191048152a1005b6115059060203d6020116103db576103ce8183611b6f565b6114a0565b6115219150823d8411610413576104058183611b6f565b83611457565b346101ba5760603660031901126101ba57611540611b43565b611548611b59565b6044359061155583611cae565b335f9081526020919091526040902054925f198410611579575b61099d9350611d8a565b8284106115e4576001600160a01b038116156115d15733156115be5761099d936115a282611cae565b60018060a01b0333165f526020528360405f209103905561156f565b634a1406b160e11b5f525f60045260245ffd5b63e602df0560e01b5f525f60045260245ffd5b8284637dc7a0d960e11b5f523360045260245260445260645ffd5b346101ba575f3660031901126101ba5760207f52c63247e1f47db19d5ce0460030c497f067ca4cebf71ba98eeadabe20bace0254604051908152f35b346101ba5760203660031901126101ba57611654611b43565b61165c611d57565b600480546001600160a01b0319166001600160a01b0392909216919091179055005b346101ba5760203660031901126101ba576004355f818152600760205260409020600201546001600160a01b0316330361196c57805f52600760205262278d006116cf600660405f20015442611c4a565b04600181018091116103a15780825f526007602052600460405f20015410611956575b815f52600760205261170b600560405f20015482611c4a565b91821561191b57600654604051630d2020dd60e01b81526821b7b232aa37b5b2b760b91b600482015290602090829060249082906001600160a01b03165afa9081156103e2575f916118fc575b505f82815260076020526040902060038101546004909101549490916001600160a01b031685156118e8575f956020930491848752600784526004604088200154861015871461188157506117d861180292858852600785526117d2600360408a20015491878a5260078752600560408b20015490611c83565b90611c4a565b60405163a9059cbb60e01b8152336004820152602481019190915295869283919082906044820190565b03925af19182156103e2577fdacbdde355ba930696a362ea6738feb9f8bd52dfb3d81947558fd3217e23e32593606093611862575b505b5f82815260076020908152604091829020600501839055815133815290810193909352820152a1005b61187a9060203d6020116103db576103ce8183611b6f565b5084611837565b6117d89061188e93611c83565b03925af19182156103e2577fdacbdde355ba930696a362ea6738feb9f8bd52dfb3d81947558fd3217e23e325936060936118c9575b50611839565b6118e19060203d6020116103db576103ce8183611b6f565b50846118c3565b634e487b7160e01b5f52601260045260245ffd5b611915915060203d602011610413576104058183611b6f565b84611758565b60405162461bcd60e51b81526020600482015260136024820152724e6f207265776172647320746f20636c61696d60681b6044820152606490fd5b50805f526007602052600460405f2001546116f2565b60405162461bcd60e51b8152602060048201526024808201527f596f7520617265206e6f74207468652077696e6e6572206f66207468697320726044820152631bdd5b9960e21b6064820152608490fd5b346101ba5760403660031901126101ba576119d6611b43565b6024359033156115d1576001600160a01b03169081156115be576119f933611cae565b825f526020528060405f20556040519081527f8c5be1e5ebec7d5bd14f71427d1e84f3dd0314c0f7b2291e5b200ac8c7c3b92560203392a3602060405160018152f35b346101ba575f3660031901126101ba576040515f7f52c63247e1f47db19d5ce0460030c497f067ca4cebf71ba98eeadabe20bace0354611a7b81611b91565b8084529060018116908115610ac15750600114611aa257610a4083610a2c81850382611b6f565b7f52c63247e1f47db19d5ce0460030c497f067ca4cebf71ba98eeadabe20bace035f9081527f2ae08a8e29253f69ac5d979a101956ab8f8d9d7ded63fa7a83b16fc47648eab0939250905b808210611b0557509091508101602001610a2c610a1c565b919260018160209254838588010152019101909291611aed565b805180835260209291819084018484015e5f828201840152601f01601f1916010190565b600435906001600160a01b03821682036101ba57565b602435906001600160a01b03821682036101ba57565b90601f8019910116810190811067ffffffffffffffff82111761072157604052565b90600182811c92168015611bbf575b6020831014611bab57565b634e487b7160e01b5f52602260045260245ffd5b91607f1691611ba0565b5f9291815491611bd883611b91565b8083529260018116908115611c2d5750600114611bf457505050565b5f9081526020812093945091925b838310611c13575060209250010190565b600181602092949394548385870101520191019190611c02565b915050602093945060ff929192191683830152151560051b010190565b919082039182116103a157565b919082018092116103a157565b908160209103126101ba57516001600160a01b03811681036101ba5790565b818102929181159184041417156103a157565b908160209103126101ba575180151581036101ba5790565b6001600160a01b03165f9081527f52c63247e1f47db19d5ce0460030c497f067ca4cebf71ba98eeadabe20bace016020526040902090565b6001600160a01b03168015611d44575f516020611eda5f395f51905f5280546001600160a01b0319811683179091556001600160a01b03167f8be0079c531659141344cd1fd0a4f28419497f9722a3daafe3b4186f6b6457e05f80a3565b631e4fbdf760e01b5f525f60045260245ffd5b5f516020611eda5f395f51905f52546001600160a01b03163303611d7757565b63118cdaa760e01b5f523360045260245ffd5b6001600160a01b0316908115611e5b576001600160a01b0316918215611e4857815f525f516020611eba5f395f51905f5260205260405f2054818110611e2f57817fddf252ad1be2c89b69c2b068fc378daa952ba7f163c4a11628f55a4df523b3ef92602092855f525f516020611eba5f395f51905f5284520360405f2055845f525f516020611eba5f395f51905f52825260405f20818154019055604051908152a3565b8263391434e360e21b5f5260045260245260445260645ffd5b63ec442f0560e01b5f525f60045260245ffd5b634b637e8f60e11b5f525f60045260245ffd5b60ff5f516020611efa5f395f51905f525460401c1615611e8a57565b631afcd79f60e31b5f5260045ffdfe3e3036d0f0a3d76690a80aefb015f915f9207d1b1df7c8f1b8d3a3f49d33fe2f52c63247e1f47db19d5ce0460030c497f067ca4cebf71ba98eeadabe20bace009016d09d72d40fdae2fd8ceac6b6234c7706214fd39c1cd1e609a0528c199300f0c57e16840df040f15088dc2f81fe391c3923bec73e23a9662efc9c229c6a00a26469706673582212205f76fbc59aecbc359f357d2e88e6f75786c3bd5a4e2b241d62af14225bb61fab64736f6c634300081c0033",
        "nonce": "0x9e",
        "chainId": "0x45a"
      },
      "additionalContracts": [],
      "isFixedGasLimit": false
    },
    {
      "hash": "0x49589717d10e50f0065722ba666d173af1a8b3d779b72cf06a21464408e09cb0",
      "transactionType": "CALL",
      "contractName": "Code",
      "contractAddress": "0x6a328bbf37786866302b7c78368d9c8a89227543",
      "function": "initialize()",
      "arguments": [],
      "transaction": {
        "from": "0xae7b099920401df166376f4b5dc5e6edffcb8468",
        "to": "0x6a328bbf37786866302b7c78368d9c8a89227543",
        "gas": "0x17728",
        "value": "0x0",
        "input": "0x8129fc1c",
        "nonce": "0x9f",
        "chainId": "0x45a"
      },
      "additionalContracts": [],
      "isFixedGasLimit": false
    },
    {
      "hash": "0x65f829f66d3c9761c8d5b51ea0e3489cc2c295ce297596db46d11ecde1f6fe22",
      "transactionType": "CREATE",
      "contractName": "Registry",
      "contractAddress": "0x369e46551850f4325ff3aed0d5ec2f50acfd583e",
      "function": null,
      "arguments": null,
      "transaction": {
        "from": "0xae7b099920401df166376f4b5dc5e6edffcb8468",
        "gas": "0x69631",
        "value": "0x0",
        "input": "0x6080806040523460155761050b908161001a8239f35b5f80fdfe6080806040526004361015610012575f80fd5b5f3560e01c9081630d2020dd1461033857508063715018a6146102d15780637ef50298146102a05780638129fc1c1461015c5780638da5cb5b14610128578063e001f841146100a45763f2fde38b14610069575f80fd5b346100a05760203660031901126100a0576004356001600160a01b03811681036100a05761009e90610099610437565b6103c6565b005b5f80fd5b346100a05760403660031901126100a0576004356024356001600160a01b038116908190036100a0577f93944d1916457afa794f5da38d669341816983c303bca958cc0003bd948627cd916040916100fa610437565b815f525f602052825f20816bffffffffffffffffffffffff60a01b82541617905582519182526020820152a1005b346100a0575f3660031901126100a0575f5160206104965f395f51905f52546040516001600160a01b039091168152602090f35b346100a0575f3660031901126100a0575f5160206104b65f395f51905f525460ff8160401c16159067ffffffffffffffff811680159081610298575b600114908161028e575b159081610285575b506102765767ffffffffffffffff1981166001175f5160206104b65f395f51905f52558161024a575b506101dc61046a565b6101e461046a565b6101ed336103c6565b6101f357005b68ff0000000000000000195f5160206104b65f395f51905f5254165f5160206104b65f395f51905f52557fc7f505b2f371ae2175ee4913f4499e1f2633a7b5936321eed1cdaeb6115181d2602060405160018152a1005b68ffffffffffffffffff191668010000000000000001175f5160206104b65f395f51905f5255816101d3565b63f92ee8a960e01b5f5260045ffd5b905015836101aa565b303b1591506101a2565b839150610198565b346100a05760203660031901126100a0576004355f525f602052602060018060a01b0360405f205416604051908152f35b346100a0575f3660031901126100a0576102e9610437565b5f5160206104965f395f51905f5280546001600160a01b031981169091555f906001600160a01b03167f8be0079c531659141344cd1fd0a4f28419497f9722a3daafe3b4186f6b6457e08280a3005b346100a05760203660031901126100a05760043590815f525f60205260018060a01b0360405f2054161561038457505f525f602052602060018060a01b0360405f205416604051908152f35b62461bcd60e51b815260206004820152601d60248201527f5265676973747279203a3a2041646472657373206e6f7420666f756e640000006044820152606490fd5b6001600160a01b03168015610424575f5160206104965f395f51905f5280546001600160a01b0319811683179091556001600160a01b03167f8be0079c531659141344cd1fd0a4f28419497f9722a3daafe3b4186f6b6457e05f80a3565b631e4fbdf760e01b5f525f60045260245ffd5b5f5160206104965f395f51905f52546001600160a01b0316330361045757565b63118cdaa760e01b5f523360045260245ffd5b60ff5f5160206104b65f395f51905f525460401c161561048657565b631afcd79f60e31b5f5260045ffdfe9016d09d72d40fdae2fd8ceac6b6234c7706214fd39c1cd1e609a0528c199300f0c57e16840df040f15088dc2f81fe391c3923bec73e23a9662efc9c229c6a00a2646970667358221220a3419e983c6e426ee49006131ce4d70ffaef2f689cfe92b89b2923049e4d234464736f6c634300081c0033",
        "nonce": "0xa0",
        "chainId": "0x45a"
      },
      "additionalContracts": [],
      "isFixedGasLimit": false
    },
    {
      "hash": "0x691de156bf85dab5e09188c651b009a914438a28ad2cccad631a695c1d178c47",
      "transactionType": "CALL",
      "contractName": "Registry",
      "contractAddress": "0x369e46551850f4325ff3aed0d5ec2f50acfd583e",
      "function": "initialize()",
      "arguments": [],
      "transaction": {
        "from": "0xae7b099920401df166376f4b5dc5e6edffcb8468",
        "to": "0x369e46551850f4325ff3aed0d5ec2f50acfd583e",
        "gas": "0x18b63",
        "value": "0x0",
        "input": "0x8129fc1c",
        "nonce": "0xa1",
        "chainId": "0x45a"
      },
      "additionalContracts": [],
      "isFixedGasLimit": false
    },
    {
      "hash": "0xc609e2f8a70ce6ed7262693d614a44620dd1edda0a72f988ae02c41f9eeae826",
      "transactionType": "CALL",
      "contractName": "Registry",
      "contractAddress": "0x369e46551850f4325ff3aed0d5ec2f50acfd583e",
      "function": "setContractAddress(bytes32,address)",
      "arguments": [
        "0x436f646500000000000000000000000000000000000000000000000000000000",
        "0x6A328Bbf37786866302b7c78368D9C8a89227543"
      ],
      "transaction": {
        "from": "0xae7b099920401df166376f4b5dc5e6edffcb8468",
        "to": "0x369e46551850f4325ff3aed0d5ec2f50acfd583e",
        "gas": "0x10fe7",
        "value": "0x0",
        "input": "0xe001f841436f6465000000000000000000000000000000000000000000000000000000000000000000000000000000006a328bbf37786866302b7c78368d9c8a89227543",
        "nonce": "0xa2",
        "chainId": "0x45a"
      },
      "additionalContracts": [],
      "isFixedGasLimit": false
    },
    {
      "hash": "0xaef48fdadd8cafb7a34d46b3362266112d558d80703fd56b0b9d317758947a74",
      "transactionType": "CALL",
      "contractName": "Registry",
      "contractAddress": "0x369e46551850f4325ff3aed0d5ec2f50acfd583e",
      "function": "setContractAddress(bytes32,address)",
      "arguments": [
        "0x436f6465546f6b656e0000000000000000000000000000000000000000000000",
        "0x54e4a3fd264Ca957Ff11192b3A58e0eD27229C7b"
      ],
      "transaction": {
        "from": "0xae7b099920401df166376f4b5dc5e6edffcb8468",
        "to": "0x369e46551850f4325ff3aed0d5ec2f50acfd583e",
        "gas": "0x1011e",
        "value": "0x0",
        "input": "0xe001f841436f6465546f6b656e000000000000000000000000000000000000000000000000000000000000000000000054e4a3fd264ca957ff11192b3a58e0ed27229c7b",
        "nonce": "0xa3",
        "chainId": "0x45a"
      },
      "additionalContracts": [],
      "isFixedGasLimit": false
    },
    {
      "hash": "0xb7d6b7d1e2341914e657a196cca1b02b1a2cb5d0864c4d129c2a2e606febf8d7",
      "transactionType": "CALL",
      "contractName": "Registry",
      "contractAddress": "0x369e46551850f4325ff3aed0d5ec2f50acfd583e",
      "function": "setContractAddress(bytes32,address)",
      "arguments": [
        "0x5265676973747279000000000000000000000000000000000000000000000000",
        "0x369e46551850f4325fF3aEd0d5ec2f50ACFD583e"
      ],
      "transaction": {
        "from": "0xae7b099920401df166376f4b5dc5e6edffcb8468",
        "to": "0x369e46551850f4325ff3aed0d5ec2f50acfd583e",
        "gas": "0x1102d",
        "value": "0x0",
        "input": "0xe001f8415265676973747279000000000000000000000000000000000000000000000000000000000000000000000000369e46551850f4325ff3aed0d5ec2f50acfd583e",
        "nonce": "0xa4",
        "chainId": "0x45a"
      },
      "additionalContracts": [],
      "isFixedGasLimit": false
    },
    {
      "hash": "0xcbbd35ff0e36ee40ee63516f28c9b4ec42f207c11194398e1191caff683222de",
      "transactionType": "CALL",
      "contractName": "Code",
      "contractAddress": "0x6a328bbf37786866302b7c78368d9c8a89227543",
      "function": "setRegistry(address)",
      "arguments": [
        "0x369e46551850f4325fF3aEd0d5ec2f50ACFD583e"
      ],
      "transaction": {
        "from": "0xae7b099920401df166376f4b5dc5e6edffcb8468",
        "to": "0x6a328bbf37786866302b7c78368d9c8a89227543",
        "gas": "0xfb37",
        "value": "0x0",
        "input": "0xa91ee0dc000000000000000000000000369e46551850f4325ff3aed0d5ec2f50acfd583e",
        "nonce": "0xa5",
        "chainId": "0x45a"
      },
      "additionalContracts": [],
      "isFixedGasLimit": false
    },
    {
      "hash": "0xb70cae76180f1f4c12d4cf2c54d2967e4e1d2d9ee74e6ab93d7777cf1baa05bb",
      "transactionType": "CALL",
      "contractName": "Code",
      "contractAddress": "0x6a328bbf37786866302b7c78368d9c8a89227543",
      "function": "setBlueHintsFee(uint256)",
      "arguments": [
        "1000000000000000000"
      ],
      "transaction": {
        "from": "0xae7b099920401df166376f4b5dc5e6edffcb8468",
        "to": "0x6a328bbf37786866302b7c78368d9c8a89227543",
        "gas": "0xffa7",
        "value": "0x0",
        "input": "0xce8399bb0000000000000000000000000000000000000000000000000de0b6b3a7640000",
        "nonce": "0xa6",
        "chainId": "0x45a"
      },
      "additionalContracts": [],
      "isFixedGasLimit": false
    },
    {
      "hash": "0x46ea03fd068ce423f4e5a5ebf0248e2c96f6e2a8f326119835b6a4599fb9fbb7",
      "transactionType": "CALL",
      "contractName": "Code",
      "contractAddress": "0x6a328bbf37786866302b7c78368d9c8a89227543",
      "function": "setYellowHintsFee(uint256)",
      "arguments": [
        "1000000000000000000"
      ],
      "transaction": {
        "from": "0xae7b099920401df166376f4b5dc5e6edffcb8468",
        "to": "0x6a328bbf37786866302b7c78368d9c8a89227543",
        "gas": "0xfd46",
        "value": "0x0",
        "input": "0x532291f40000000000000000000000000000000000000000000000000de0b6b3a7640000",
        "nonce": "0xa7",
        "chainId": "0x45a"
      },
      "additionalContracts": [],
      "isFixedGasLimit": false
    },
    {
      "hash": "0x86957b3da964cc994dbf1103130d91ae093554221aae43c86360cb5e1849bf1f",
      "transactionType": "CALL",
      "contractName": "Code",
      "contractAddress": "0x6a328bbf37786866302b7c78368d9c8a89227543",
      "function": "setSubmissionFee(uint256)",
      "arguments": [
        "1000000000000000000"
      ],
      "transaction": {
        "from": "0xae7b099920401df166376f4b5dc5e6edffcb8468",
        "to": "0x6a328bbf37786866302b7c78368d9c8a89227543",
        "gas": "0x10c8e",
        "value": "0x0",
        "input": "0x6752071c0000000000000000000000000000000000000000000000000de0b6b3a7640000",
        "nonce": "0xa8",
        "chainId": "0x45a"
      },
      "additionalContracts": [],
      "isFixedGasLimit": false
    },
    {
      "hash": "0xb33e06230a5bd256dc059d93532560fc2d398794f46a576d3d02d02667814c86",
      "transactionType": "CALL",
      "contractName": "Code",
      "contractAddress": "0x6a328bbf37786866302b7c78368d9c8a89227543",
      "function": "setTeamWallet(address)",
      "arguments": [
        "0xdC28726629eB86c2c1a19E3785516f575A93A36E"
      ],
      "transaction": {
        "from": "0xae7b099920401df166376f4b5dc5e6edffcb8468",
        "to": "0x6a328bbf37786866302b7c78368d9c8a89227543",
        "gas": "0xf87b",
        "value": "0x0",
        "input": "0x1525ff7d000000000000000000000000dc28726629eb86c2c1a19e3785516f575a93a36e",
        "nonce": "0xa9",
        "chainId": "0x45a"
      },
      "additionalContracts": [],
      "isFixedGasLimit": false
    },
    {
      "hash": "0xaa979aff87214574722efa6df5ecd1ec396e72f5ab9fac59a1e8f5b45a338b97",
      "transactionType": "CALL",
      "contractName": "CodeToken",
      "contractAddress": "0x54e4a3fd264ca957ff11192b3a58e0ed27229c7b",
      "function": "approve(address,uint256)",
      "arguments": [
        "0x6A328Bbf37786866302b7c78368D9C8a89227543",
        "115792089237316195423570985008687907853269984665640564039457584007913129639935"
      ],
      "transaction": {
        "from": "0xae7b099920401df166376f4b5dc5e6edffcb8468",
        "to": "0x54e4a3fd264ca957ff11192b3a58e0ed27229c7b",
        "gas": "0x10894",
        "value": "0x0",
        "input": "0x095ea7b30000000000000000000000006a328bbf37786866302b7c78368d9c8a89227543ffffffffffffffffffffffffffffffffffffffffffffffffffffffffffffffff",
        "nonce": "0xaa",
        "chainId": "0x45a"
      },
      "additionalContracts": [],
      "isFixedGasLimit": false
    },
    {
      "hash": "0x57db6427ec856ba98ef00fe593c7cba32a93200139b263cc70cc7c3e7a7ac2d2",
      "transactionType": "CALL",
      "contractName": "Code",
      "contractAddress": "0x6a328bbf37786866302b7c78368d9c8a89227543",
      "function": "transferInitialTreasury()",
      "arguments": [],
      "transaction": {
        "from": "0xae7b099920401df166376f4b5dc5e6edffcb8468",
        "to": "0x6a328bbf37786866302b7c78368d9c8a89227543",
        "gas": "0x1e258",
        "value": "0x0",
        "input": "0x266aec10",
        "nonce": "0xab",
        "chainId": "0x45a"
      },
      "additionalContracts": [],
      "isFixedGasLimit": false
    }
  ],
  "receipts": [
    {
      "status": "0x1",
      "cumulativeGasUsed": "0xd25bf",
      "logs": [],
      "logsBloom": "0x00000000000000000000000000000000000000000000000000000000000000000000000000000000000000000000000000000000000000000000000000000000000000000000000000000000000000000000000000000000000000000000000000000000000000000000000000000000000000000000000000000000000000000000000000000000000000000000000000000000000000000000000000000000000000000000000000000000000000000000000000000000000000000000000000000000000000000000000000000000000000000000000000000000000000000000000000000000000000000000000000000000000000000000000000000000",
      "type": "0x0",
      "transactionHash": "0xd2be9fadf6a89415c206550fea870190c4ad30ca83dcde05aafa17b93fb2b45d",
      "transactionIndex": "0x0",
      "blockHash": "0x22b6c4db5b808ffcf22e53b8d9415a6f2ae342f75a3938a8ebc269ad817baa95",
      "blockNumber": "0x280ab9",
      "gasUsed": "0xd25bf",
      "effectiveGasPrice": "0x826299e00",
      "from": "0xae7b099920401df166376f4b5dc5e6edffcb8468",
      "to": null,
      "contractAddress": "0x54e4a3fd264ca957ff11192b3a58e0ed27229c7b"
    },
    {
      "status": "0x1",
      "cumulativeGasUsed": "0x275ac",
      "logs": [
        {
          "address": "0x54e4a3fd264ca957ff11192b3a58e0ed27229c7b",
          "topics": [
            "0x8be0079c531659141344cd1fd0a4f28419497f9722a3daafe3b4186f6b6457e0",
            "0x0000000000000000000000000000000000000000000000000000000000000000",
            "0x000000000000000000000000ae7b099920401df166376f4b5dc5e6edffcb8468"
          ],
          "data": "0x",
          "blockHash": "0x4d2f2bdb33736578dbadb7b3df32b1cce120701e10ba40b5f017988ec9e7528e",
          "blockNumber": "0x280aba",
          "transactionHash": "0x1ed7dd63906d90e067b1aecb389ded8aa8dfa206e33cc89161f32a2e7f9a9cac",
          "transactionIndex": "0x0",
          "logIndex": "0x0",
          "removed": false
        },
        {
          "address": "0x54e4a3fd264ca957ff11192b3a58e0ed27229c7b",
          "topics": [
            "0xddf252ad1be2c89b69c2b068fc378daa952ba7f163c4a11628f55a4df523b3ef",
            "0x0000000000000000000000000000000000000000000000000000000000000000",
            "0x000000000000000000000000ae7b099920401df166376f4b5dc5e6edffcb8468"
          ],
          "data": "0x0000000000000000000000000000000000000000204fce5e3e25026110000000",
          "blockHash": "0x4d2f2bdb33736578dbadb7b3df32b1cce120701e10ba40b5f017988ec9e7528e",
          "blockNumber": "0x280aba",
          "transactionHash": "0x1ed7dd63906d90e067b1aecb389ded8aa8dfa206e33cc89161f32a2e7f9a9cac",
          "transactionIndex": "0x0",
          "logIndex": "0x1",
          "removed": false
        },
        {
          "address": "0x54e4a3fd264ca957ff11192b3a58e0ed27229c7b",
          "topics": [
            "0xc7f505b2f371ae2175ee4913f4499e1f2633a7b5936321eed1cdaeb6115181d2"
          ],
          "data": "0x0000000000000000000000000000000000000000000000000000000000000001",
          "blockHash": "0x4d2f2bdb33736578dbadb7b3df32b1cce120701e10ba40b5f017988ec9e7528e",
          "blockNumber": "0x280aba",
          "transactionHash": "0x1ed7dd63906d90e067b1aecb389ded8aa8dfa206e33cc89161f32a2e7f9a9cac",
          "transactionIndex": "0x0",
          "logIndex": "0x2",
          "removed": false
        }
      ],
      "logsBloom": "0x00000000000000000000000000000000001000000000000000800000000000000000000000080000000000000000000000000000000000000000000000000000000000400000000000000008000000000001000000000000000000000000000000000000020000000000000000000800000000000000000000000010000000400000000000000000000800000000000000000000000080000004000000000000000000000000000000000000000000000000000000000000000000000000000000000002000000000000000000000000000000000004000000000000000020000000000000000000000000080000000000000000000000000020000000000000",
      "type": "0x0",
      "transactionHash": "0x1ed7dd63906d90e067b1aecb389ded8aa8dfa206e33cc89161f32a2e7f9a9cac",
      "transactionIndex": "0x0",
      "blockHash": "0x4d2f2bdb33736578dbadb7b3df32b1cce120701e10ba40b5f017988ec9e7528e",
      "blockNumber": "0x280aba",
      "gasUsed": "0x275ac",
      "effectiveGasPrice": "0x826299e00",
      "from": "0xae7b099920401df166376f4b5dc5e6edffcb8468",
      "to": "0x54e4a3fd264ca957ff11192b3a58e0ed27229c7b",
      "contractAddress": null
    },
    {
      "status": "0x1",
      "cumulativeGasUsed": "0x1b40fa",
      "logs": [],
      "logsBloom": "0x00000000000000000000000000000000000000000000000000000000000000000000000000000000000000000000000000000000000000000000000000000000000000000000000000000000000000000000000000000000000000000000000000000000000000000000000000000000000000000000000000000000000000000000000000000000000000000000000000000000000000000000000000000000000000000000000000000000000000000000000000000000000000000000000000000000000000000000000000000000000000000000000000000000000000000000000000000000000000000000000000000000000000000000000000000000",
      "type": "0x0",
      "transactionHash": "0xec3a5f9cd45f35419e0a32a967d508b85222bef5c8a1d85459208437dec19d97",
      "transactionIndex": "0x0",
      "blockHash": "0xee1a310c8cd64e0b6210d9817c83e1b7d20ba0a5dbda8b62e6a3e45ce7588350",
      "blockNumber": "0x280abb",
      "gasUsed": "0x1b40fa",
      "effectiveGasPrice": "0x826299e00",
      "from": "0xae7b099920401df166376f4b5dc5e6edffcb8468",
      "to": null,
      "contractAddress": "0x6a328bbf37786866302b7c78368d9c8a89227543"
    },
    {
      "status": "0x1",
      "cumulativeGasUsed": "0x10f9c",
      "logs": [
        {
          "address": "0x6a328bbf37786866302b7c78368d9c8a89227543",
          "topics": [
            "0x8be0079c531659141344cd1fd0a4f28419497f9722a3daafe3b4186f6b6457e0",
            "0x0000000000000000000000000000000000000000000000000000000000000000",
            "0x000000000000000000000000ae7b099920401df166376f4b5dc5e6edffcb8468"
          ],
          "data": "0x",
          "blockHash": "0xfb89107af243923e0442bc83cff7cc69ae8c749992d28973f2e44f850899b648",
          "blockNumber": "0x280abc",
          "transactionHash": "0x49589717d10e50f0065722ba666d173af1a8b3d779b72cf06a21464408e09cb0",
          "transactionIndex": "0x0",
          "logIndex": "0x0",
          "removed": false
        },
        {
          "address": "0x6a328bbf37786866302b7c78368d9c8a89227543",
          "topics": [
            "0xc7f505b2f371ae2175ee4913f4499e1f2633a7b5936321eed1cdaeb6115181d2"
          ],
          "data": "0x0000000000000000000000000000000000000000000000000000000000000001",
          "blockHash": "0xfb89107af243923e0442bc83cff7cc69ae8c749992d28973f2e44f850899b648",
          "blockNumber": "0x280abc",
          "transactionHash": "0x49589717d10e50f0065722ba666d173af1a8b3d779b72cf06a21464408e09cb0",
          "transactionIndex": "0x0",
          "logIndex": "0x1",
          "removed": false
        }
      ],
      "logsBloom": "0x00000000000000000000000000000000001000000000000000800000000000000000000000000000000000000000000000000000000000000000000000000000000000000000000000000000000000000001000000000000000000000000000000000000020000000000000000000800000000000000000000000000000000400000010000000000000800000000000000000000000080000004000000000000000000000000000000000000000000000400000000000000000000000000000000000000000000000000000000000000000000000004000000000000000020000000000000001000000000000000000000000000000000000020000000000000",
      "type": "0x0",
      "transactionHash": "0x49589717d10e50f0065722ba666d173af1a8b3d779b72cf06a21464408e09cb0",
      "transactionIndex": "0x0",
      "blockHash": "0xfb89107af243923e0442bc83cff7cc69ae8c749992d28973f2e44f850899b648",
      "blockNumber": "0x280abc",
      "gasUsed": "0x10f9c",
      "effectiveGasPrice": "0x826299e00",
      "from": "0xae7b099920401df166376f4b5dc5e6edffcb8468",
      "to": "0x6a328bbf37786866302b7c78368d9c8a89227543",
      "contractAddress": null
    },
    {
      "status": "0x1",
      "cumulativeGasUsed": "0x51112",
      "logs": [],
      "logsBloom": "0x00000000000000000000000000000000000000000000000000000000000000000000000000000000000000000000000000000000000000000000000000000000000000000000000000000000000000000000000000000000000000000000000000000000000000000000000000000000000000000000000000000000000000000000000000000000000000000000000000000000000000000000000000000000000000000000000000000000000000000000000000000000000000000000000000000000000000000000000000000000000000000000000000000000000000000000000000000000000000000000000000000000000000000000000000000000",
      "type": "0x0",
      "transactionHash": "0x65f829f66d3c9761c8d5b51ea0e3489cc2c295ce297596db46d11ecde1f6fe22",
      "transactionIndex": "0x0",
      "blockHash": "0xcae0f8904c55b89669f1a2b63f6f887eb772f23ee46809d01130b22f8453750e",
      "blockNumber": "0x280abd",
      "gasUsed": "0x51112",
      "effectiveGasPrice": "0x826299e00",
      "from": "0xae7b099920401df166376f4b5dc5e6edffcb8468",
      "to": null,
      "contractAddress": "0x369e46551850f4325ff3aed0d5ec2f50acfd583e"
    },
    {
      "status": "0x1",
      "cumulativeGasUsed": "0x10e5a",
      "logs": [
        {
          "address": "0x369e46551850f4325ff3aed0d5ec2f50acfd583e",
          "topics": [
            "0x8be0079c531659141344cd1fd0a4f28419497f9722a3daafe3b4186f6b6457e0",
            "0x0000000000000000000000000000000000000000000000000000000000000000",
            "0x000000000000000000000000ae7b099920401df166376f4b5dc5e6edffcb8468"
          ],
          "data": "0x",
          "blockHash": "0x212c812117b55d146ed173526a9abe9a1493ed9e7b2a75a9ad70a65a473fd1db",
          "blockNumber": "0x280abe",
          "transactionHash": "0x691de156bf85dab5e09188c651b009a914438a28ad2cccad631a695c1d178c47",
          "transactionIndex": "0x0",
          "logIndex": "0x0",
          "removed": false
        },
        {
          "address": "0x369e46551850f4325ff3aed0d5ec2f50acfd583e",
          "topics": [
            "0xc7f505b2f371ae2175ee4913f4499e1f2633a7b5936321eed1cdaeb6115181d2"
          ],
          "data": "0x0000000000000000000000000000000000000000000000000000000000000001",
          "blockHash": "0x212c812117b55d146ed173526a9abe9a1493ed9e7b2a75a9ad70a65a473fd1db",
          "blockNumber": "0x280abe",
          "transactionHash": "0x691de156bf85dab5e09188c651b009a914438a28ad2cccad631a695c1d178c47",
          "transactionIndex": "0x0",
          "logIndex": "0x1",
          "removed": false
        }
      ],
      "logsBloom": "0x00000000000000000000000000000000001000000000000000800000000000000000000000000000000000000000000000000000000000000000000000000000000000000000000000000000000000000001000000000000000000000000080000000000020000000000000000000800000000000000000000000000000000400000000000000000000800000000000000001000000080000004000000000000000000000000000000000000000000000000000000000000000000000000000000000000000000000000000000000000000000000004000000000000000020000100000000000000000000000000000000000000000000000020000000000000",
      "type": "0x0",
      "transactionHash": "0x691de156bf85dab5e09188c651b009a914438a28ad2cccad631a695c1d178c47",
      "transactionIndex": "0x0",
      "blockHash": "0x212c812117b55d146ed173526a9abe9a1493ed9e7b2a75a9ad70a65a473fd1db",
      "blockNumber": "0x280abe",
      "gasUsed": "0x10e5a",
      "effectiveGasPrice": "0x826299e00",
      "from": "0xae7b099920401df166376f4b5dc5e6edffcb8468",
      "to": "0x369e46551850f4325ff3aed0d5ec2f50acfd583e",
      "contractAddress": null
    },
    {
      "status": "0x1",
      "cumulativeGasUsed": "0xb9eb",
      "logs": [
        {
          "address": "0x369e46551850f4325ff3aed0d5ec2f50acfd583e",
          "topics": [
            "0x93944d1916457afa794f5da38d669341816983c303bca958cc0003bd948627cd"
          ],
          "data": "0x436f6465000000000000000000000000000000000000000000000000000000000000000000000000000000006a328bbf37786866302b7c78368d9c8a89227543",
          "blockHash": "0x303275e55c11f450db681de5aae977ce764607181e3b28f57a03e9450396f057",
          "blockNumber": "0x280abf",
          "transactionHash": "0xc609e2f8a70ce6ed7262693d614a44620dd1edda0a72f988ae02c41f9eeae826",
          "transactionIndex": "0x0",
          "logIndex": "0x0",
          "removed": false
        }
      ],
      "logsBloom": "0x00000000000000000000000000000000000000000000000000000000000000000000000000000000000000000000000000000000000000000000000000000000000000000020000000000000000000000000000080000000000000000000080000000000000000000000000000000000000000000000000000000000000000000000000000000000000000000000000000001000000000000000000000000000100000000000000000000000000000000000000000000000000000000000000000000000000000000000000000000000000000000000000000000000000000000100000000000000000000000000000000000000000000000000000000000000",
      "type": "0x0",
      "transactionHash": "0xc609e2f8a70ce6ed7262693d614a44620dd1edda0a72f988ae02c41f9eeae826",
      "transactionIndex": "0x0",
      "blockHash": "0x303275e55c11f450db681de5aae977ce764607181e3b28f57a03e9450396f057",
      "blockNumber": "0x280abf",
      "gasUsed": "0xb9eb",
      "effectiveGasPrice": "0x826299e00",
      "from": "0xae7b099920401df166376f4b5dc5e6edffcb8468",
      "to": "0x369e46551850f4325ff3aed0d5ec2f50acfd583e",
      "contractAddress": null
    },
    {
      "status": "0x1",
      "cumulativeGasUsed": "0xba27",
      "logs": [
        {
          "address": "0x369e46551850f4325ff3aed0d5ec2f50acfd583e",
          "topics": [
            "0x93944d1916457afa794f5da38d669341816983c303bca958cc0003bd948627cd"
          ],
          "data": "0x436f6465546f6b656e000000000000000000000000000000000000000000000000000000000000000000000054e4a3fd264ca957ff11192b3a58e0ed27229c7b",
          "blockHash": "0xe716d592889b8df8ff4799fa4942609a43ed60521a322ca0cea6812bd486066b",
          "blockNumber": "0x280ac0",
          "transactionHash": "0xaef48fdadd8cafb7a34d46b3362266112d558d80703fd56b0b9d317758947a74",
          "transactionIndex": "0x0",
          "logIndex": "0x0",
          "removed": false
        }
      ],
      "logsBloom": "0x00000000000000000000000000000000000000000000000000000000000000000000000000000000000000000000000000000000000000000000000000000000000000000020000000000000000000000000000080000000000000000000080000000000000000000000000000000000000000000000000000000000000000000000000000000000000000000000000000001000000000000000000000000000100000000000000000000000000000000000000000000000000000000000000000000000000000000000000000000000000000000000000000000000000000000100000000000000000000000000000000000000000000000000000000000000",
      "type": "0x0",
      "transactionHash": "0xaef48fdadd8cafb7a34d46b3362266112d558d80703fd56b0b9d317758947a74",
      "transactionIndex": "0x0",
      "blockHash": "0xe716d592889b8df8ff4799fa4942609a43ed60521a322ca0cea6812bd486066b",
      "blockNumber": "0x280ac0",
      "gasUsed": "0xba27",
      "effectiveGasPrice": "0x826299e00",
      "from": "0xae7b099920401df166376f4b5dc5e6edffcb8468",
      "to": "0x369e46551850f4325ff3aed0d5ec2f50acfd583e",
      "contractAddress": null
    },
    {
      "status": "0x1",
      "cumulativeGasUsed": "0xba1b",
      "logs": [
        {
          "address": "0x369e46551850f4325ff3aed0d5ec2f50acfd583e",
          "topics": [
            "0x93944d1916457afa794f5da38d669341816983c303bca958cc0003bd948627cd"
          ],
          "data": "0x5265676973747279000000000000000000000000000000000000000000000000000000000000000000000000369e46551850f4325ff3aed0d5ec2f50acfd583e",
          "blockHash": "0x0fa42d0a0293f6c0ee3a637431144bb9cb9485c721c92b2d97730925d47ba9c5",
          "blockNumber": "0x280ac1",
          "transactionHash": "0xb7d6b7d1e2341914e657a196cca1b02b1a2cb5d0864c4d129c2a2e606febf8d7",
          "transactionIndex": "0x0",
          "logIndex": "0x0",
          "removed": false
        }
      ],
      "logsBloom": "0x00000000000000000000000000000000000000000000000000000000000000000000000000000000000000000000000000000000000000000000000000000000000000000020000000000000000000000000000080000000000000000000080000000000000000000000000000000000000000000000000000000000000000000000000000000000000000000000000000001000000000000000000000000000100000000000000000000000000000000000000000000000000000000000000000000000000000000000000000000000000000000000000000000000000000000100000000000000000000000000000000000000000000000000000000000000",
      "type": "0x0",
      "transactionHash": "0xb7d6b7d1e2341914e657a196cca1b02b1a2cb5d0864c4d129c2a2e606febf8d7",
      "transactionIndex": "0x0",
      "blockHash": "0x0fa42d0a0293f6c0ee3a637431144bb9cb9485c721c92b2d97730925d47ba9c5",
      "blockNumber": "0x280ac1",
      "gasUsed": "0xba1b",
      "effectiveGasPrice": "0x826299e00",
      "from": "0xae7b099920401df166376f4b5dc5e6edffcb8468",
      "to": "0x369e46551850f4325ff3aed0d5ec2f50acfd583e",
      "contractAddress": null
    },
    {
      "status": "0x1",
      "cumulativeGasUsed": "0xb5e0",
      "logs": [],
      "logsBloom": "0x00000000000000000000000000000000000000000000000000000000000000000000000000000000000000000000000000000000000000000000000000000000000000000000000000000000000000000000000000000000000000000000000000000000000000000000000000000000000000000000000000000000000000000000000000000000000000000000000000000000000000000000000000000000000000000000000000000000000000000000000000000000000000000000000000000000000000000000000000000000000000000000000000000000000000000000000000000000000000000000000000000000000000000000000000000000",
      "type": "0x0",
      "transactionHash": "0xcbbd35ff0e36ee40ee63516f28c9b4ec42f207c11194398e1191caff683222de",
      "transactionIndex": "0x0",
      "blockHash": "0x722861d46621066248d6ba76fe623de6278f4ea4efe706f3c183c6b89bafedc2",
      "blockNumber": "0x280ac2",
      "gasUsed": "0xb5e0",
      "effectiveGasPrice": "0x826299e00",
      "from": "0xae7b099920401df166376f4b5dc5e6edffcb8468",
      "to": "0x6a328bbf37786866302b7c78368d9c8a89227543",
      "contractAddress": null
    },
    {
      "status": "0x1",
      "cumulativeGasUsed": "0xb917",
      "logs": [
        {
          "address": "0x6a328bbf37786866302b7c78368d9c8a89227543",
          "topics": [
            "0x7ab83c35e60e02096ec2f085a4e0f63cceb157a21238fdcd29ce6685cb4c3e73"
          ],
          "data": "0x0000000000000000000000000000000000000000000000000de0b6b3a7640000",
          "blockHash": "0xd528491279dd9d63f3950dec885c8cf5c57625ef6d2b9c64466a4cf17d2cf769",
          "blockNumber": "0x280ac3",
          "transactionHash": "0xb70cae76180f1f4c12d4cf2c54d2967e4e1d2d9ee74e6ab93d7777cf1baa05bb",
          "transactionIndex": "0x0",
          "logIndex": "0x0",
          "removed": false
        }
      ],
      "logsBloom": "0x00000000000000000000000000000000000000000000000000000000000000000000000000000000000000000000000000000000000000000000000000000000000000000000000000001000000000000000000000000000000000000000000000000000000000000000000000000000000000000000000000000000000000000000010000000080000000000000000000000000000000000000000000000000000000000000000000000000000000000400000000000000000000000000000000000000000000000000000000000000000000000000000000000000000000000000000000001000000000000000000000000000010000000000000000000000",
      "type": "0x0",
      "transactionHash": "0xb70cae76180f1f4c12d4cf2c54d2967e4e1d2d9ee74e6ab93d7777cf1baa05bb",
      "transactionIndex": "0x0",
      "blockHash": "0xd528491279dd9d63f3950dec885c8cf5c57625ef6d2b9c64466a4cf17d2cf769",
      "blockNumber": "0x280ac3",
      "gasUsed": "0xb917",
      "effectiveGasPrice": "0x826299e00",
      "from": "0xae7b099920401df166376f4b5dc5e6edffcb8468",
      "to": "0x6a328bbf37786866302b7c78368d9c8a89227543",
      "contractAddress": null
    },
    {
      "status": "0x1",
      "cumulativeGasUsed": "0xb75f",
      "logs": [
        {
          "address": "0x6a328bbf37786866302b7c78368d9c8a89227543",
          "topics": [
            "0xbea1a3a91f7fb0eb8809e74307f4c0cdf4e60cc0fd794f46e3b9979fc53a2929"
          ],
          "data": "0x0000000000000000000000000000000000000000000000000de0b6b3a7640000",
          "blockHash": "0xfeb15c736a31d17d51a3b4fa08c9f43272782d40f51ba8229f6b277cadbd7694",
          "blockNumber": "0x280ac4",
          "transactionHash": "0x46ea03fd068ce423f4e5a5ebf0248e2c96f6e2a8f326119835b6a4599fb9fbb7",
          "transactionIndex": "0x0",
          "logIndex": "0x0",
          "removed": false
        }
      ],
      "logsBloom": "0x00000000000000000000000000000000000000000000000000000000000000000000000000000000000800000000000000000000000000000000000000000000000000000000000000000000000000000000000000000000000000001000000000000000000000000000000000000000000000000000000000000000000000000000010000000000800000000000000000000000000000000000000000000000000000000000000000000000000000000400000000000000000000000000000000000000000000000000000000000000000000000000000000000000000000000000000000001000000000000000000000000000000000000000000000000000",
      "type": "0x0",
      "transactionHash": "0x46ea03fd068ce423f4e5a5ebf0248e2c96f6e2a8f326119835b6a4599fb9fbb7",
      "transactionIndex": "0x0",
      "blockHash": "0xfeb15c736a31d17d51a3b4fa08c9f43272782d40f51ba8229f6b277cadbd7694",
      "blockNumber": "0x280ac4",
      "gasUsed": "0xb75f",
      "effectiveGasPrice": "0x826299e00",
      "from": "0xae7b099920401df166376f4b5dc5e6edffcb8468",
      "to": "0x6a328bbf37786866302b7c78368d9c8a89227543",
      "contractAddress": null
    },
    {
      "status": "0x1",
      "cumulativeGasUsed": "0xb7a1",
      "logs": [
        {
          "address": "0x6a328bbf37786866302b7c78368d9c8a89227543",
          "topics": [
            "0x8d0fa9daa4fd10aa43cf5213e9d38aa76823b2a49571e7f5432b0b2368f4cda1"
          ],
          "data": "0x0000000000000000000000000000000000000000000000000de0b6b3a7640000",
          "blockHash": "0x08f3d4340506e7052fbba7c77e96d4dd69ba252e5950c57368825711bca672b5",
          "blockNumber": "0x280ac5",
          "transactionHash": "0x86957b3da964cc994dbf1103130d91ae093554221aae43c86360cb5e1849bf1f",
          "transactionIndex": "0x0",
          "logIndex": "0x0",
          "removed": false
        }
      ],
      "logsBloom": "0x00000000000000000000000000000000000000000000000000000000000000000000000000000000000000000000000000000000000000000000000400000000000000000000000000000000000000000000000000000000000000000000000000000000000000000000000000000000000000000000000000000000000000000000010000000000000000000000000008000000000000000000000000000000000000000000000020000000000000000400000000000000000000000000000000000000000000000000000000000000000000000000000000000000000000000000000000001000000000000000000000000000000000000000000000000000",
      "type": "0x0",
      "transactionHash": "0x86957b3da964cc994dbf1103130d91ae093554221aae43c86360cb5e1849bf1f",
      "transactionIndex": "0x0",
      "blockHash": "0x08f3d4340506e7052fbba7c77e96d4dd69ba252e5950c57368825711bca672b5",
      "blockNumber": "0x280ac5",
      "gasUsed": "0xb7a1",
      "effectiveGasPrice": "0x826299e00",
      "from": "0xae7b099920401df166376f4b5dc5e6edffcb8468",
      "to": "0x6a328bbf37786866302b7c78368d9c8a89227543",
      "contractAddress": null
    },
    {
      "status": "0x1",
      "cumulativeGasUsed": "0xb3e6",
      "logs": [],
      "logsBloom": "0x00000000000000000000000000000000000000000000000000000000000000000000000000000000000000000000000000000000000000000000000000000000000000000000000000000000000000000000000000000000000000000000000000000000000000000000000000000000000000000000000000000000000000000000000000000000000000000000000000000000000000000000000000000000000000000000000000000000000000000000000000000000000000000000000000000000000000000000000000000000000000000000000000000000000000000000000000000000000000000000000000000000000000000000000000000000",
      "type": "0x0",
      "transactionHash": "0xb33e06230a5bd256dc059d93532560fc2d398794f46a576d3d02d02667814c86",
      "transactionIndex": "0x0",
      "blockHash": "0x9e55a2391a95c6662e72d6df3a0414df00a923b456b61d1704fe908ce50d71d4",
      "blockNumber": "0x280ac6",
      "gasUsed": "0xb3e6",
      "effectiveGasPrice": "0x826299e00",
      "from": "0xae7b099920401df166376f4b5dc5e6edffcb8468",
      "to": "0x6a328bbf37786866302b7c78368d9c8a89227543",
      "contractAddress": null
    },
    {
      "status": "0x1",
      "cumulativeGasUsed": "0xb4e9",
      "logs": [
        {
          "address": "0x54e4a3fd264ca957ff11192b3a58e0ed27229c7b",
          "topics": [
            "0x8c5be1e5ebec7d5bd14f71427d1e84f3dd0314c0f7b2291e5b200ac8c7c3b925",
            "0x000000000000000000000000ae7b099920401df166376f4b5dc5e6edffcb8468",
            "0x0000000000000000000000006a328bbf37786866302b7c78368d9c8a89227543"
          ],
          "data": "0xffffffffffffffffffffffffffffffffffffffffffffffffffffffffffffffff",
          "blockHash": "0x2b6e40f612f2dc874d7edae03dcd966bdeb12c0731f009cee2d89a2597cde430",
          "blockNumber": "0x280ac7",
          "transactionHash": "0xaa979aff87214574722efa6df5ecd1ec396e72f5ab9fac59a1e8f5b45a338b97",
          "transactionIndex": "0x0",
          "logIndex": "0x0",
          "removed": false
        }
      ],
      "logsBloom": "0x00000000000000000000000000000000001000000000000000000000000000000000000004080000000000000000000000000000000000000000000000200000000000400000000000000000000000000000000000000000000000000000000000000000000000000000000000000000000000000000000000000000000000000000000000000000000000000000000000000000000000000004000000000000020000000000000000000000000000000000000000000000000000000000000000000000000000000000000000000000000000001000000800000000000000000010000000000000000000080000000000000000000000000020000000000000",
      "type": "0x0",
      "transactionHash": "0xaa979aff87214574722efa6df5ecd1ec396e72f5ab9fac59a1e8f5b45a338b97",
      "transactionIndex": "0x0",
      "blockHash": "0x2b6e40f612f2dc874d7edae03dcd966bdeb12c0731f009cee2d89a2597cde430",
      "blockNumber": "0x280ac7",
      "gasUsed": "0xb4e9",
      "effectiveGasPrice": "0x826299e00",
      "from": "0xae7b099920401df166376f4b5dc5e6edffcb8468",
      "to": "0x54e4a3fd264ca957ff11192b3a58e0ed27229c7b",
      "contractAddress": null
    },
    {
      "status": "0x1",
      "cumulativeGasUsed": "0x15d36",
      "logs": [
        {
          "address": "0x54e4a3fd264ca957ff11192b3a58e0ed27229c7b",
          "topics": [
            "0xddf252ad1be2c89b69c2b068fc378daa952ba7f163c4a11628f55a4df523b3ef",
            "0x000000000000000000000000ae7b099920401df166376f4b5dc5e6edffcb8468",
            "0x0000000000000000000000006a328bbf37786866302b7c78368d9c8a89227543"
          ],
          "data": "0x00000000000000000000000000000000000000000052b7d2dcc80cd2e4000000",
          "blockHash": "0xe84e9f23be3764dd4c3fdde0cc04f164d95816dbbff4d06656dbf8f8fb6f91d7",
          "blockNumber": "0x280ac8",
          "transactionHash": "0x57db6427ec856ba98ef00fe593c7cba32a93200139b263cc70cc7c3e7a7ac2d2",
          "transactionIndex": "0x0",
          "logIndex": "0x0",
          "removed": false
        },
        {
          "address": "0x6a328bbf37786866302b7c78368d9c8a89227543",
          "topics": [
            "0x3e3036d0f0a3d76690a80aefb015f915f9207d1b1df7c8f1b8d3a3f49d33fe2f"
          ],
          "data": "0x0000000000000000000000000000000000000000000422ca8b0a00a425000000",
          "blockHash": "0xe84e9f23be3764dd4c3fdde0cc04f164d95816dbbff4d06656dbf8f8fb6f91d7",
          "blockNumber": "0x280ac8",
          "transactionHash": "0x57db6427ec856ba98ef00fe593c7cba32a93200139b263cc70cc7c3e7a7ac2d2",
          "transactionIndex": "0x0",
          "logIndex": "0x1",
          "removed": false
        }
      ],
      "logsBloom": "0x00000020000000000000000000000000001000000000000000000000000000000400000004080000000000000000000000000000000000000000000000000000000000400000000000000008000000000000000000000000000000000000000000000000000000000000000000000000000000000000000000000010000000000000010000000000000000000000000000000000000000000004000000000000000000000100000000000000000000000400000000000000000000000000000000000002000000000000000000000000000000001000000800000000000000000000000000001000000000080000000000000000000000000020000000000000",
      "type": "0x0",
      "transactionHash": "0x57db6427ec856ba98ef00fe593c7cba32a93200139b263cc70cc7c3e7a7ac2d2",
      "transactionIndex": "0x0",
      "blockHash": "0xe84e9f23be3764dd4c3fdde0cc04f164d95816dbbff4d06656dbf8f8fb6f91d7",
      "blockNumber": "0x280ac8",
      "gasUsed": "0x15d36",
      "effectiveGasPrice": "0x826299e00",
      "from": "0xae7b099920401df166376f4b5dc5e6edffcb8468",
      "to": "0x6a328bbf37786866302b7c78368d9c8a89227543",
      "contractAddress": null
    }
  ],
  "libraries": [],
  "pending": [],
  "returns": {},
  "timestamp": 1741071802,
  "chain": 1114,
  "commit": "67bd07c"
}